8=FIX.4.2|9=73|35=A|34=1|49=MY_SERVER|52=20260203-04:45:14.016|56=MY_CLIENT|98=0|108=30|10=150|8=FIX.4.2|9=61|35=0|34=2|49=MY_SERVER|52=20260203-04:45:44.133|56=MY_CLIENT|10=109|8=FIX.4.2|9=73|35=A|34=3|49=MY_SERVER|52=20260203-04:46:58.752|56=MY_CLIENT|98=0|108=30|10=168|8=FIX.4.2|9=110|35=5|34=4|49=MY_SERVER|52=20260203-04:50:26.312|56=MY_CLIENT|58=MsgSeqNum too low, expecting 4 but received 1|10=051|8=FIX.4.2|9=110|35=5|34=5|49=MY_SERVER|52=20260203-04:50:31.276|56=MY_CLIENT|58=MsgSeqNum too low, expecting 4 but received 3|10=059|8=FIX.4.2|9=73|35=A|34=6|49=MY_SERVER|52=20260203-04:50:36.271|56=MY_CLIENT|98=0|108=30|10=158|8=FIX.4.2|9=70|35=2|34=7|49=MY_SERVER|52=20260203-04:50:36.273|56=MY_CLIENT|7=4|16=0|10=244|8=FIX.4.2|9=61|35=0|34=8|49=MY_SERVER|52=20260203-04:51:06.274|56=MY_CLIENT|10=116|8=FIX.4.2|9=61|35=0|34=9|49=MY_SERVER|52=20260203-04:51:36.275|56=MY_CLIENT|10=121|8=FIX.4.2|9=62|35=0|34=10|49=MY_SERVER|52=20260203-04:52:06.278|56=MY_CLIENT|10=163|8=FIX.4.2|9=62|35=0|34=11|49=MY_SERVER|52=20260203-04:52:36.274|56=MY_CLIENT|10=163|8=FIX.4.2|9=62|35=0|34=12|49=MY_SERVER|52=20260203-04:53:06.273|56=MY_CLIENT|10=161|8=FIX.4.2|9=62|35=0|34=13|49=MY_SERVER|52=20260203-04:53:36.272|56=MY_CLIENT|10=164|8=FIX.4.2|9=62|35=0|34=14|49=MY_SERVER|52=20260203-04:54:06.274|56=MY_CLIENT|10=165|8=FIX.4.2|9=62|35=0|34=15|49=MY_SERVER|52=20260203-04:54:36.275|56=MY_CLIENT|10=170|8=FIX.4.2|9=62|35=0|34=16|49=MY_SERVER|52=20260203-04:55:06.272|56=MY_CLIENT|10=166|8=FIX.4.2|9=62|35=0|34=17|49=MY_SERVER|52=20260203-04:55:36.273|56=MY_CLIENT|10=171|8=FIX.4.2|9=62|35=0|34=18|49=MY_SERVER|52=20260203-04:56:06.274|56=MY_CLIENT|10=171|8=FIX.4.2|9=62|35=0|34=19|49=MY_SERVER|52=20260203-04:56:36.274|56=MY_CLIENT|10=175|8=FIX.4.2|9=62|35=0|34=20|49=MY_SERVER|52=20260203-04:57:06.273|56=MY_CLIENT|10=164|8=FIX.4.2|9=62|35=0|34=21|49=MY_SERVER|52=20260203-04:57:36.274|56=MY_CLIENT|10=169|8=FIX.4.2|9=74|35=A|34=22|49=MY_SERVER|52=20260203-05:12:46.323|56=MY_CLIENT|98=0|108=30|10=203|8=FIX.4.2|9=62|35=0|34=23|49=MY_SERVER|52=20260203-05:13:16.346|56=MY_CLIENT|10=162|8=FIX.4.2|9=62|35=0|34=24|49=MY_SERVER|52=20260203-05:13:47.181|56=MY_CLIENT|10=164|8=FIX.4.2|9=74|35=A|34=25|49=MY_SERVER|52=20260203-05:28:55.769|56=MY_CLIENT|98=0|108=30|10=227|8=FIX.4.2|9=62|35=0|34=26|49=MY_SERVER|52=20260203-05:29:25.769|56=MY_CLIENT|10=181|8=FIX.4.2|9=62|35=0|34=27|49=MY_SERVER|52=20260203-05:29:55.778|56=MY_CLIENT|10=185|8=FIX.4.2|9=62|35=0|34=28|49=MY_SERVER|52=20260203-05:30:25.770|56=MY_CLIENT|10=167|8=FIX.4.2|9=62|35=0|34=29|49=MY_SERVER|52=20260203-05:30:55.772|56=MY_CLIENT|10=173|8=FIX.4.2|9=62|35=0|34=30|49=MY_SERVER|52=20260203-05:31:25.769|56=MY_CLIENT|10=169|8=FIX.4.2|9=62|35=0|34=31|49=MY_SERVER|52=20260203-05:31:55.776|56=MY_CLIENT|10=171|8=FIX.4.2|9=62|35=0|34=32|49=MY_SERVER|52=20260203-05:32:25.773|56=MY_CLIENT|10=167|8=FIX.4.2|9=74|35=A|34=33|49=MY_SERVER|52=20260203-05:47:29.588|56=MY_CLIENT|98=0|108=30|10=227|8=FIX.4.2|9=62|35=0|34=34|49=MY_SERVER|52=20260203-05:47:59.589|56=MY_CLIENT|10=187|8=FIX.4.2|9=62|35=0|34=35|49=MY_SERVER|52=20260203-05:48:29.585|56=MY_CLIENT|10=182|8=FIX.4.2|9=62|35=0|34=36|49=MY_SERVER|52=20260203-05:48:59.583|56=MY_CLIENT|10=184|8=FIX.4.2|9=62|35=0|34=37|49=MY_SERVER|52=20260203-05:49:29.583|56=MY_CLIENT|10=183|8=FIX.4.2|9=62|35=0|34=38|49=MY_SERVER|52=20260203-05:49:59.582|56=MY_CLIENT|10=186|8=FIX.4.2|9=62|35=0|34=39|49=MY_SERVER|52=20260203-05:50:29.587|56=MY_CLIENT|10=181|8=FIX.4.2|9=62|35=0|34=40|49=MY_SERVER|52=20260203-05:50:59.589|56=MY_CLIENT|10=178|8=FIX.4.2|9=62|35=0|34=41|49=MY_SERVER|52=20260203-05:51:29.585|56=MY_CLIENT|10=173|8=FIX.4.2|9=62|35=0|34=42|49=MY_SERVER|52=20260203-05:51:59.584|56=MY_CLIENT|10=176|8=FIX.4.2|9=62|35=0|34=43|49=MY_SERVER|52=20260203-05:52:29.581|56=MY_CLIENT|10=172|8=FIX.4.2|9=62|35=0|34=44|49=MY_SERVER|52=20260203-05:52:59.583|56=MY_CLIENT|10=178|8=FIX.4.2|9=62|35=0|34=45|49=MY_SERVER|52=20260203-05:53:29.582|56=MY_CLIENT|10=176|8=FIX.4.2|9=62|35=0|34=46|49=MY_SERVER|52=20260203-05:53:59.582|56=MY_CLIENT|10=180|8=FIX.4.2|9=62|35=0|34=47|49=MY_SERVER|52=20260203-05:54:29.584|56=MY_CLIENT|10=181|8=FIX.4.2|9=62|35=0|34=48|49=MY_SERVER|52=20260203-05:54:59.584|56=MY_CLIENT|10=185|8=FIX.4.2|9=62|35=0|34=49|49=MY_SERVER|52=20260203-05:55:29.583|56=MY_CLIENT|10=183|8=FIX.4.2|9=62|35=0|34=50|49=MY_SERVER|52=20260203-05:55:59.585|56=MY_CLIENT|10=180|8=FIX.4.2|9=62|35=0|34=51|49=MY_SERVER|52=20260203-05:56:29.583|56=MY_CLIENT|10=177|8=FIX.4.2|9=62|35=0|34=52|49=MY_SERVER|52=20260203-05:56:59.583|56=MY_CLIENT|10=181|8=FIX.4.2|9=62|35=0|34=53|49=MY_SERVER|52=20260203-05:57:29.582|56=MY_CLIENT|10=179|8=FIX.4.2|9=62|35=0|34=54|49=MY_SERVER|52=20260203-05:57:59.582|56=MY_CLIENT|10=183|8=FIX.4.2|9=62|35=0|34=55|49=MY_SERVER|52=20260203-05:58:29.585|56=MY_CLIENT|10=185|8=FIX.4.2|9=62|35=0|34=56|49=MY_SERVER|52=20260203-05:58:59.584|56=MY_CLIENT|10=188|8=FIX.4.2|9=62|35=0|34=57|49=MY_SERVER|52=20260203-05:59:29.583|56=MY_CLIENT|10=186|8=FIX.4.2|9=62|35=0|34=58|49=MY_SERVER|52=20260203-05:59:59.586|56=MY_CLIENT|10=193|8=FIX.4.2|9=62|35=0|34=59|49=MY_SERVER|52=20260203-06:00:29.587|56=MY_CLIENT|10=179|8=FIX.4.2|9=62|35=0|34=60|49=MY_SERVER|52=20260203-06:00:59.584|56=MY_CLIENT|10=171|8=FIX.4.2|9=62|35=0|34=61|49=MY_SERVER|52=20260203-06:01:29.587|56=MY_CLIENT|10=173|8=FIX.4.2|9=62|35=0|34=62|49=MY_SERVER|52=20260203-06:01:59.586|56=MY_CLIENT|10=176|8=FIX.4.2|9=62|35=0|34=63|49=MY_SERVER|52=20260203-06:02:29.582|56=MY_CLIENT|10=171|8=FIX.4.2|9=62|35=0|34=64|49=MY_SERVER|52=20260203-06:02:59.581|56=MY_CLIENT|10=174|8=FIX.4.2|9=62|35=0|34=65|49=MY_SERVER|52=20260203-06:03:29.586|56=MY_CLIENT|10=178|8=FIX.4.2|9=62|35=0|34=66|49=MY_SERVER|52=20260203-06:03:59.585|56=MY_CLIENT|10=181|8=FIX.4.2|9=62|35=0|34=67|49=MY_SERVER|52=20260203-06:04:29.585|56=MY_CLIENT|10=180|8=FIX.4.2|9=62|35=0|34=68|49=MY_SERVER|52=20260203-06:04:59.586|56=MY_CLIENT|10=185|8=FIX.4.2|9=62|35=0|34=69|49=MY_SERVER|52=20260203-06:05:29.584|56=MY_CLIENT|10=182|8=FIX.4.2|9=62|35=0|34=70|49=MY_SERVER|52=20260203-06:05:59.581|56=MY_CLIENT|10=174|8=FIX.4.2|9=62|35=0|34=71|49=MY_SERVER|52=20260203-06:06:29.583|56=MY_CLIENT|10=175|8=FIX.4.2|9=62|35=0|34=72|49=MY_SERVER|52=20260203-06:06:59.585|56=MY_CLIENT|10=181|8=FIX.4.2|9=62|35=0|34=73|49=MY_SERVER|52=20260203-06:07:29.584|56=MY_CLIENT|10=179|8=FIX.4.2|9=62|35=0|34=74|49=MY_SERVER|52=20260203-06:07:59.585|56=MY_CLIENT|10=184|8=FIX.4.2|9=62|35=0|34=75|49=MY_SERVER|52=20260203-06:08:29.583|56=MY_CLIENT|10=181|8=FIX.4.2|9=62|35=0|34=76|49=MY_SERVER|52=20260203-06:08:59.597|56=MY_CLIENT|10=190|8=FIX.4.2|9=62|35=0|34=77|49=MY_SERVER|52=20260203-06:09:30.439|56=MY_CLIENT|10=176|8=FIX.4.2|9=62|35=0|34=78|49=MY_SERVER|52=20260203-06:10:00.439|56=MY_CLIENT|10=166|8=FIX.4.2|9=74|35=A|34=79|49=MY_SERVER|52=20260203-06:10:36.907|56=MY_CLIENT|98=0|108=30|10=221|8=FIX.4.2|9=62|35=5|34=80|49=MY_SERVER|52=20260203-06:10:48.864|56=MY_CLIENT|10=178|8=FIX.4.2|9=74|35=A|34=81|49=MY_SERVER|52=20260203-06:11:18.103|56=MY_CLIENT|98=0|108=30|10=203|8=FIX.4.2|9=62|35=5|34=82|49=MY_SERVER|52=20260203-06:11:29.063|56=MY_CLIENT|10=171|8=FIX.4.2|9=74|35=A|34=83|49=MY_SERVER|52=20260203-06:11:51.313|56=MY_CLIENT|98=0|108=30|10=205|8=FIX.4.2|9=62|35=5|34=84|49=MY_SERVER|52=20260203-06:11:53.265|56=MY_CLIENT|10=174|8=FIX.4.2|9=156|35=8|34=85|49=MY_SERVER|52=20260203-06:31:55.273|56=MY_CLIENT|6=12.04|14=0|17=EXEC-1770100315268|20=0|37=ORDER-1770100315265|39=0|54=1|55=SCB|150=0|151=400|10=012|8=FIX.4.2|9=156|35=8|34=86|49=MY_SERVER|52=20260203-06:38:35.609|56=MY_CLIENT|6=12.31|14=0|17=EXEC-1770100715608|20=0|37=ORDER-1770100715608|39=0|54=1|55=SCB|150=0|151=100|10=025|8=FIX.4.2|9=74|35=A|34=87|49=MY_SERVER|52=20260203-06:39:22.845|56=MY_CLIENT|98=0|108=30|10=227|8=FIX.4.2|9=72|35=2|34=88|49=MY_SERVER|52=20260203-06:39:22.847|56=MY_CLIENT|7=85|16=0|10=115|8=FIX.4.2|9=62|35=5|34=89|49=MY_SERVER|52=20260203-06:39:22.853|56=MY_CLIENT|10=188|8=FIX.4.2|9=74|35=A|34=90|49=MY_SERVER|52=20260203-06:39:27.792|56=MY_CLIENT|98=0|108=30|10=227|8=FIX.4.2|9=72|35=2|34=91|49=MY_SERVER|52=20260203-06:39:27.793|56=MY_CLIENT|7=85|16=0|10=114|8=FIX.4.2|9=74|35=A|34=92|49=MY_SERVER|52=20260203-06:39:47.817|56=MY_CLIENT|98=0|108=30|10=229|8=FIX.4.2|9=156|35=8|34=93|49=MY_SERVER|52=20260203-06:39:56.346|56=MY_CLIENT|6=12.31|14=0|17=EXEC-1770100796342|20=0|37=ORDER-1770100796338|39=0|54=1|55=SCB|150=0|151=100|10=038|8=FIX.4.2|9=74|35=A|34=94|49=MY_SERVER|52=20260203-06:40:22.810|56=MY_CLIENT|98=0|108=30|10=209|8=FIX.4.2|9=157|35=8|34=95|49=MY_SERVER|52=20260203-06:40:31.704|56=MY_CLIENT|6=12.31|14=0|17=EXEC-1770100831702|20=0|37=ORDER-1770100831699|39=0|54=1|55=MFEC|150=0|151=100|10=081|8=FIX.4.2|9=62|35=0|34=96|49=MY_SERVER|52=20260203-06:41:02.057|56=MY_CLIENT|10=168|8=FIX.4.2|9=74|35=A|34=97|49=MY_SERVER|52=20260203-06:41:18.811|56=MY_CLIENT|98=0|108=30|10=219|8=FIX.4.2|9=155|35=8|34=98|49=MY_SERVER|52=20260203-06:41:32.193|56=MY_CLIENT|6=12.3|14=0|17=EXEC-1770100892189|20=0|37=ORDER-1770100892185|39=0|54=1|55=SCB|150=0|151=100|10=239|8=FIX.4.2|9=62|35=0|34=99|49=MY_SERVER|52=20260203-06:42:02.727|56=MY_CLIENT|10=176|8=FIX.4.2|9=158|35=8|34=100|49=MY_SERVER|52=20260203-06:42:03.510|56=MY_CLIENT|6=12.31|14=0|17=EXEC-1770100923510|20=0|37=ORDER-1770100923509|39=0|54=1|55=MFEC|150=0|151=100|10=104|8=FIX.4.2|9=75|35=A|34=101|49=MY_SERVER|52=20260203-06:43:56.804|56=MY_CLIENT|98=0|108=30|10=004|8=FIX.4.2|9=160|35=8|34=102|49=MY_SERVER|52=20260203-06:44:03.168|56=MY_CLIENT|6=12.31|14=100|17=EXEC-1770101043165|20=0|37=ORDER-1770101043161|39=0|54=1|55=MFEC|150=0|151=100|10=195|8=FIX.4.2|9=63|35=0|34=103|49=MY_SERVER|52=20260203-06:44:33.621|56=MY_CLIENT|10=210|8=FIX.4.2|9=63|35=0|34=104|49=MY_SERVER|52=20260203-06:45:03.623|56=MY_CLIENT|10=211|8=FIX.4.2|9=63|35=0|34=105|49=MY_SERVER|52=20260203-06:45:33.624|56=MY_CLIENT|10=216|8=FIX.4.2|9=63|35=0|34=106|49=MY_SERVER|52=20260203-06:46:03.624|56=MY_CLIENT|10=215|8=FIX.4.2|9=63|35=0|34=107|49=MY_SERVER|52=20260203-06:46:33.624|56=MY_CLIENT|10=219|8=FIX.4.2|9=63|35=0|34=108|49=MY_SERVER|52=20260203-06:47:03.621|56=MY_CLIENT|10=215|8=FIX.4.2|9=63|35=0|34=109|49=MY_SERVER|52=20260203-06:47:33.624|56=MY_CLIENT|10=222|8=FIX.4.2|9=63|35=0|34=110|49=MY_SERVER|52=20260203-06:48:03.624|56=MY_CLIENT|10=212|8=FIX.4.2|9=63|35=0|34=111|49=MY_SERVER|52=20260203-06:48:33.622|56=MY_CLIENT|10=214|8=FIX.4.2|9=63|35=0|34=112|49=MY_SERVER|52=20260203-06:49:03.622|56=MY_CLIENT|10=213|8=FIX.4.2|9=63|35=0|34=113|49=MY_SERVER|52=20260203-06:49:33.619|56=MY_CLIENT|10=223|8=FIX.4.2|9=63|35=0|34=114|49=MY_SERVER|52=20260203-06:50:03.619|56=MY_CLIENT|10=213|8=FIX.4.2|9=63|35=0|34=115|49=MY_SERVER|52=20260203-06:50:33.620|56=MY_CLIENT|10=209|8=FIX.4.2|9=63|35=0|34=116|49=MY_SERVER|52=20260203-06:51:03.622|56=MY_CLIENT|10=210|8=FIX.4.2|9=63|35=0|34=117|49=MY_SERVER|52=20260203-06:51:33.619|56=MY_CLIENT|10=220|8=FIX.4.2|9=63|35=0|34=118|49=MY_SERVER|52=20260203-06:52:03.621|56=MY_CLIENT|10=212|8=FIX.4.2|9=63|35=0|34=119|49=MY_SERVER|52=20260203-06:52:33.623|56=MY_CLIENT|10=218|8=FIX.4.2|9=63|35=0|34=120|49=MY_SERVER|52=20260203-06:53:03.620|56=MY_CLIENT|10=205|8=FIX.4.2|9=63|35=0|34=121|49=MY_SERVER|52=20260203-06:53:33.623|56=MY_CLIENT|10=212|8=FIX.4.2|9=63|35=0|34=122|49=MY_SERVER|52=20260203-06:54:03.622|56=MY_CLIENT|10=210|8=FIX.4.2|9=63|35=0|34=123|49=MY_SERVER|52=20260203-06:54:33.624|56=MY_CLIENT|10=216|8=FIX.4.2|9=63|35=0|34=124|49=MY_SERVER|52=20260203-06:55:03.620|56=MY_CLIENT|10=211|8=FIX.4.2|9=63|35=0|34=125|49=MY_SERVER|52=20260203-06:55:33.622|56=MY_CLIENT|10=217|8=FIX.4.2|9=63|35=0|34=126|49=MY_SERVER|52=20260203-06:56:03.623|56=MY_CLIENT|10=217|8=FIX.4.2|9=63|35=0|34=127|49=MY_SERVER|52=20260203-06:56:33.624|56=MY_CLIENT|10=222|8=FIX.4.2|9=63|35=0|34=128|49=MY_SERVER|52=20260203-06:57:03.619|56=MY_CLIENT|10=225|8=FIX.4.2|9=63|35=0|34=129|49=MY_SERVER|52=20260203-06:57:33.622|56=MY_CLIENT|10=223|8=FIX.4.2|9=63|35=0|34=130|49=MY_SERVER|52=20260203-06:58:03.624|56=MY_CLIENT|10=215|8=FIX.4.2|9=63|35=0|34=131|49=MY_SERVER|52=20260203-06:58:33.622|56=MY_CLIENT|10=217|8=FIX.4.2|9=63|35=0|34=132|49=MY_SERVER|52=20260203-06:59:03.621|56=MY_CLIENT|10=215|8=FIX.4.2|9=63|35=0|34=133|49=MY_SERVER|52=20260203-06:59:33.621|56=MY_CLIENT|10=219|8=FIX.4.2|9=63|35=0|34=134|49=MY_SERVER|52=20260203-07:00:03.620|56=MY_CLIENT|10=203|8=FIX.4.2|9=63|35=0|34=135|49=MY_SERVER|52=20260203-07:00:33.619|56=MY_CLIENT|10=215|8=FIX.4.2|9=63|35=0|34=136|49=MY_SERVER|52=20260203-07:01:03.620|56=MY_CLIENT|10=206|8=FIX.4.2|9=63|35=0|34=137|49=MY_SERVER|52=20260203-07:01:33.622|56=MY_CLIENT|10=212|8=FIX.4.2|9=63|35=0|34=138|49=MY_SERVER|52=20260203-07:02:03.623|56=MY_CLIENT|10=212|8=FIX.4.2|9=63|35=0|34=139|49=MY_SERVER|52=20260203-07:02:33.624|56=MY_CLIENT|10=217|8=FIX.4.2|9=63|35=0|34=140|49=MY_SERVER|52=20260203-07:03:03.621|56=MY_CLIENT|10=204|8=FIX.4.2|9=63|35=0|34=141|49=MY_SERVER|52=20260203-07:03:33.622|56=MY_CLIENT|10=209|8=FIX.4.2|9=63|35=0|34=142|49=MY_SERVER|52=20260203-07:04:03.619|56=MY_CLIENT|10=214|8=FIX.4.2|9=63|35=0|34=143|49=MY_SERVER|52=20260203-07:04:33.621|56=MY_CLIENT|10=211|8=FIX.4.2|9=63|35=0|34=144|49=MY_SERVER|52=20260203-07:05:03.621|56=MY_CLIENT|10=210|8=FIX.4.2|9=63|35=0|34=145|49=MY_SERVER|52=20260203-07:05:33.619|56=MY_CLIENT|10=221|8=FIX.4.2|9=63|35=0|34=146|49=MY_SERVER|52=20260203-07:06:03.622|56=MY_CLIENT|10=214|8=FIX.4.2|9=63|35=0|34=147|49=MY_SERVER|52=20260203-07:06:33.621|56=MY_CLIENT|10=217|8=FIX.4.2|9=63|35=0|34=148|49=MY_SERVER|52=20260203-07:07:03.620|56=MY_CLIENT|10=215|8=FIX.4.2|9=63|35=0|34=149|49=MY_SERVER|52=20260203-07:07:33.622|56=MY_CLIENT|10=221|8=FIX.4.2|9=63|35=0|34=150|49=MY_SERVER|52=20260203-07:08:03.620|56=MY_CLIENT|10=209|8=FIX.4.2|9=63|35=0|34=151|49=MY_SERVER|52=20260203-07:08:33.621|56=MY_CLIENT|10=214|8=FIX.4.2|9=63|35=0|34=152|49=MY_SERVER|52=20260203-07:09:03.617|56=MY_CLIENT|10=218|8=FIX.4.2|9=63|35=0|34=153|49=MY_SERVER|52=20260203-07:09:33.617|56=MY_CLIENT|10=222|8=FIX.4.2|9=63|35=0|34=154|49=MY_SERVER|52=20260203-07:10:03.621|56=MY_CLIENT|10=207|8=FIX.4.2|9=63|35=0|34=155|49=MY_SERVER|52=20260203-07:10:33.618|56=MY_CLIENT|10=217|8=FIX.4.2|9=63|35=0|34=156|49=MY_SERVER|52=20260203-07:11:03.617|56=MY_CLIENT|10=215|8=FIX.4.2|9=63|35=0|34=157|49=MY_SERVER|52=20260203-07:11:33.621|56=MY_CLIENT|10=214|8=FIX.4.2|9=63|35=0|34=158|49=MY_SERVER|52=20260203-07:12:03.622|56=MY_CLIENT|10=214|8=FIX.4.2|9=63|35=0|34=159|49=MY_SERVER|52=20260203-07:12:33.620|56=MY_CLIENT|10=216|8=FIX.4.2|9=63|35=0|34=160|49=MY_SERVER|52=20260203-07:13:03.621|56=MY_CLIENT|10=207|8=FIX.4.2|9=63|35=0|34=161|49=MY_SERVER|52=20260203-07:13:33.619|56=MY_CLIENT|10=218|8=FIX.4.2|9=63|35=0|34=162|49=MY_SERVER|52=20260203-07:14:03.621|56=MY_CLIENT|10=210|8=FIX.4.2|9=63|35=0|34=163|49=MY_SERVER|52=20260203-07:14:33.620|56=MY_CLIENT|10=213|8=FIX.4.2|9=63|35=0|34=164|49=MY_SERVER|52=20260203-07:15:03.619|56=MY_CLIENT|10=220|8=FIX.4.2|9=63|35=0|34=165|49=MY_SERVER|52=20260203-07:15:33.621|56=MY_CLIENT|10=217|8=FIX.4.2|9=63|35=0|34=166|49=MY_SERVER|52=20260203-07:16:03.618|56=MY_CLIENT|10=222|8=FIX.4.2|9=63|35=0|34=167|49=MY_SERVER|52=20260203-07:16:33.619|56=MY_CLIENT|10=227|8=FIX.4.2|9=63|35=0|34=168|49=MY_SERVER|52=20260203-07:17:03.621|56=MY_CLIENT|10=219|8=FIX.4.2|9=63|35=0|34=169|49=MY_SERVER|52=20260203-07:17:33.621|56=MY_CLIENT|10=223|8=FIX.4.2|9=63|35=0|34=170|49=MY_SERVER|52=20260203-07:18:03.620|56=MY_CLIENT|10=212|8=FIX.4.2|9=63|35=0|34=171|49=MY_SERVER|52=20260203-07:18:33.619|56=MY_CLIENT|10=224|8=FIX.4.2|9=63|35=0|34=172|49=MY_SERVER|52=20260203-07:19:03.621|56=MY_CLIENT|10=216|8=FIX.4.2|9=63|35=0|34=173|49=MY_SERVER|52=20260203-07:19:40.558|56=MY_CLIENT|10=227|8=FIX.4.2|9=63|35=0|34=174|49=MY_SERVER|52=20260203-07:20:10.563|56=MY_CLIENT|10=213|8=FIX.4.2|9=72|35=1|34=175|49=MY_SERVER|52=20260203-07:20:44.937|56=MY_CLIENT|112=TEST|10=245|8=FIX.4.2|9=63|35=0|34=176|49=MY_SERVER|52=20260203-07:21:14.931|56=MY_CLIENT|10=219|8=FIX.4.2|9=63|35=0|34=177|49=MY_SERVER|52=20260203-07:21:48.978|56=MY_CLIENT|10=238|8=FIX.4.2|9=63|35=0|34=178|49=MY_SERVER|52=20260203-07:22:19.126|56=MY_CLIENT|10=223|8=FIX.4.2|9=63|35=0|34=179|49=MY_SERVER|52=20260203-07:22:49.120|56=MY_CLIENT|10=221|8=FIX.4.2|9=63|35=0|34=180|49=MY_SERVER|52=20260203-07:23:19.125|56=MY_CLIENT|10=216|8=FIX.4.2|9=63|35=0|34=181|49=MY_SERVER|52=20260203-07:23:49.120|56=MY_CLIENT|10=215|8=FIX.4.2|9=63|35=0|34=182|49=MY_SERVER|52=20260203-07:24:19.125|56=MY_CLIENT|10=219|8=FIX.4.2|9=63|35=0|34=183|49=MY_SERVER|52=20260203-07:24:49.124|56=MY_CLIENT|10=222|8=FIX.4.2|9=63|35=0|34=184|49=MY_SERVER|52=20260203-07:25:19.126|56=MY_CLIENT|10=223|8=FIX.4.2|9=63|35=0|34=185|49=MY_SERVER|52=20260203-07:25:49.124|56=MY_CLIENT|10=225|8=FIX.4.2|9=63|35=0|34=186|49=MY_SERVER|52=20260203-07:26:19.124|56=MY_CLIENT|10=224|8=FIX.4.2|9=63|35=0|34=187|49=MY_SERVER|52=20260203-07:26:49.124|56=MY_CLIENT|10=228|8=FIX.4.2|9=63|35=0|34=188|49=MY_SERVER|52=20260203-07:27:19.124|56=MY_CLIENT|10=227|8=FIX.4.2|9=63|35=0|34=189|49=MY_SERVER|52=20260203-07:27:49.124|56=MY_CLIENT|10=231|8=FIX.4.2|9=63|35=0|34=190|49=MY_SERVER|52=20260203-07:28:19.128|56=MY_CLIENT|10=225|8=FIX.4.2|9=63|35=0|34=191|49=MY_SERVER|52=20260203-07:28:49.123|56=MY_CLIENT|10=224|8=FIX.4.2|9=63|35=0|34=192|49=MY_SERVER|52=20260203-07:29:19.147|56=MY_CLIENT|10=229|8=FIX.4.2|9=63|35=0|34=193|49=MY_SERVER|52=20260203-07:29:49.959|56=MY_CLIENT|10=244|8=FIX.4.2|9=63|35=0|34=194|49=MY_SERVER|52=20260203-07:30:19.957|56=MY_CLIENT|10=232|8=FIX.4.2|9=63|35=0|34=195|49=MY_SERVER|52=20260203-07:30:49.958|56=MY_CLIENT|10=237|8=FIX.4.2|9=63|35=0|34=196|49=MY_SERVER|52=20260203-07:31:19.957|56=MY_CLIENT|10=235|8=FIX.4.2|9=63|35=0|34=197|49=MY_SERVER|52=20260203-07:31:49.957|56=MY_CLIENT|10=239|8=FIX.4.2|9=63|35=0|34=198|49=MY_SERVER|52=20260203-07:32:19.955|56=MY_CLIENT|10=236|8=FIX.4.2|9=63|35=0|34=199|49=MY_SERVER|52=20260203-07:32:49.955|56=MY_CLIENT|10=240|8=FIX.4.2|9=63|35=0|34=200|49=MY_SERVER|52=20260203-07:33:19.955|56=MY_CLIENT|10=221|8=FIX.4.2|9=63|35=0|34=201|49=MY_SERVER|52=20260203-07:33:49.954|56=MY_CLIENT|10=224|8=FIX.4.2|9=63|35=0|34=202|49=MY_SERVER|52=20260203-07:34:19.957|56=MY_CLIENT|10=226|8=FIX.4.2|9=63|35=0|34=203|49=MY_SERVER|52=20260203-07:34:49.958|56=MY_CLIENT|10=231|8=FIX.4.2|9=63|35=0|34=204|49=MY_SERVER|52=20260203-07:35:19.958|56=MY_CLIENT|10=230|8=FIX.4.2|9=63|35=0|34=205|49=MY_SERVER|52=20260203-07:35:49.953|56=MY_CLIENT|10=229|8=FIX.4.2|9=63|35=0|34=206|49=MY_SERVER|52=20260203-07:36:19.957|56=MY_CLIENT|10=232|8=FIX.4.2|9=63|35=0|34=207|49=MY_SERVER|52=20260203-07:36:49.959|56=MY_CLIENT|10=238|8=FIX.4.2|9=63|35=0|34=208|49=MY_SERVER|52=20260203-07:37:19.959|56=MY_CLIENT|10=237|8=FIX.4.2|9=63|35=0|34=209|49=MY_SERVER|52=20260203-07:37:49.959|56=MY_CLIENT|10=241|8=FIX.4.2|9=63|35=0|34=210|49=MY_SERVER|52=20260203-07:38:19.961|56=MY_CLIENT|10=224|8=FIX.4.2|9=63|35=0|34=211|49=MY_SERVER|52=20260203-07:38:49.959|56=MY_CLIENT|10=235|8=FIX.4.2|9=63|35=0|34=212|49=MY_SERVER|52=20260203-07:39:19.959|56=MY_CLIENT|10=234|8=FIX.4.2|9=63|35=0|34=213|49=MY_SERVER|52=20260203-07:39:49.963|56=MY_CLIENT|10=233|8=FIX.4.2|9=63|35=0|34=214|49=MY_SERVER|52=20260203-07:40:19.962|56=MY_CLIENT|10=222|8=FIX.4.2|9=63|35=0|34=215|49=MY_SERVER|52=20260203-07:40:49.965|56=MY_CLIENT|10=229|8=FIX.4.2|9=63|35=0|34=216|49=MY_SERVER|52=20260203-07:41:19.965|56=MY_CLIENT|10=228|8=FIX.4.2|9=63|35=0|34=217|49=MY_SERVER|52=20260203-07:41:49.965|56=MY_CLIENT|10=232|8=FIX.4.2|9=63|35=0|34=218|49=MY_SERVER|52=20260203-07:42:19.964|56=MY_CLIENT|10=230|8=FIX.4.2|9=63|35=0|34=219|49=MY_SERVER|52=20260203-07:42:49.958|56=MY_CLIENT|10=237|8=FIX.4.2|9=63|35=0|34=220|49=MY_SERVER|52=20260203-07:43:19.961|56=MY_CLIENT|10=221|8=FIX.4.2|9=63|35=0|34=221|49=MY_SERVER|52=20260203-07:43:49.961|56=MY_CLIENT|10=225|8=FIX.4.2|9=63|35=0|34=222|49=MY_SERVER|52=20260203-07:44:19.960|56=MY_CLIENT|10=223|8=FIX.4.2|9=63|35=0|34=223|49=MY_SERVER|52=20260203-07:44:49.965|56=MY_CLIENT|10=232|8=FIX.4.2|9=63|35=0|34=224|49=MY_SERVER|52=20260203-07:45:19.959|56=MY_CLIENT|10=234|8=FIX.4.2|9=63|35=0|34=225|49=MY_SERVER|52=20260203-07:45:49.965|56=MY_CLIENT|10=235|8=FIX.4.2|9=63|35=0|34=226|49=MY_SERVER|52=20260203-07:46:19.961|56=MY_CLIENT|10=230|8=FIX.4.2|9=63|35=0|34=227|49=MY_SERVER|52=20260203-07:46:49.960|56=MY_CLIENT|10=233|8=FIX.4.2|9=63|35=0|34=228|49=MY_SERVER|52=20260203-07:47:19.963|56=MY_CLIENT|10=235|8=FIX.4.2|9=63|35=0|34=229|49=MY_SERVER|52=20260203-07:47:49.958|56=MY_CLIENT|10=243|8=FIX.4.2|9=63|35=0|34=230|49=MY_SERVER|52=20260203-07:48:19.962|56=MY_CLIENT|10=228|8=FIX.4.2|9=63|35=0|34=231|49=MY_SERVER|52=20260203-07:48:49.958|56=MY_CLIENT|10=237|8=FIX.4.2|9=63|35=0|34=232|49=MY_SERVER|52=20260203-07:49:19.965|56=MY_CLIENT|10=234|8=FIX.4.2|9=63|35=0|34=233|49=MY_SERVER|52=20260203-07:49:49.964|56=MY_CLIENT|10=237|8=FIX.4.2|9=63|35=0|34=234|49=MY_SERVER|52=20260203-07:50:19.956|56=MY_CLIENT|10=228|8=FIX.4.2|9=63|35=0|34=235|49=MY_SERVER|52=20260203-07:50:49.958|56=MY_CLIENT|10=234|8=FIX.4.2|9=63|35=0|34=236|49=MY_SERVER|52=20260203-07:51:19.960|56=MY_CLIENT|10=226|8=FIX.4.2|9=63|35=0|34=237|49=MY_SERVER|52=20260203-07:51:49.960|56=MY_CLIENT|10=230|8=FIX.4.2|9=63|35=0|34=238|49=MY_SERVER|52=20260203-07:52:19.959|56=MY_CLIENT|10=237|8=FIX.4.2|9=63|35=0|34=239|49=MY_SERVER|52=20260203-07:52:49.961|56=MY_CLIENT|10=234|8=FIX.4.2|9=63|35=0|34=240|49=MY_SERVER|52=20260203-07:53:19.957|56=MY_CLIENT|10=229|8=FIX.4.2|9=63|35=0|34=241|49=MY_SERVER|52=20260203-07:53:49.956|56=MY_CLIENT|10=232|8=FIX.4.2|9=63|35=0|34=242|49=MY_SERVER|52=20260203-07:54:19.959|56=MY_CLIENT|10=234|8=FIX.4.2|9=63|35=0|34=243|49=MY_SERVER|52=20260203-07:54:49.961|56=MY_CLIENT|10=231|8=FIX.4.2|9=63|35=0|34=244|49=MY_SERVER|52=20260203-07:55:19.958|56=MY_CLIENT|10=236|8=FIX.4.2|9=75|35=A|34=245|49=MY_SERVER|52=20260203-07:55:33.151|56=MY_CLIENT|98=0|108=30|10=007|8=FIX.4.2|9=63|35=0|34=246|49=MY_SERVER|52=20260203-07:56:03.830|56=MY_CLIENT|10=221|8=FIX.4.2|9=157|35=8|34=247|49=MY_SERVER|52=20260203-07:56:09.623|56=MY_CLIENT|6=100|14=120|17=EXEC-1770105369619|20=0|37=ORDER-1770105369616|39=0|54=2|55=SCB|150=0|151=120|10=094|8=FIX.4.2|9=63|35=0|34=248|49=MY_SERVER|52=20260203-07:56:39.829|56=MY_CLIENT|10=240|8=FIX.4.2|9=63|35=0|34=249|49=MY_SERVER|52=20260203-07:57:09.828|56=MY_CLIENT|10=238|8=FIX.4.2|9=63|35=0|34=250|49=MY_SERVER|52=20260203-07:57:39.829|56=MY_CLIENT|10=234|8=FIX.4.2|9=75|35=A|34=251|49=MY_SERVER|52=20260203-07:58:13.151|56=MY_CLIENT|98=0|108=30|10=005|8=FIX.4.2|9=156|35=8|34=252|49=MY_SERVER|52=20260203-07:58:19.659|56=MY_CLIENT|6=12|14=132|17=EXEC-1770105499656|20=0|37=ORDER-1770105499653|39=0|54=1|55=scb|150=0|151=132|10=166|8=FIX.4.2|9=63|35=0|34=253|49=MY_SERVER|52=20260203-07:58:50.427|56=MY_CLIENT|10=225|8=FIX.4.2|9=63|35=0|34=254|49=MY_SERVER|52=20260203-07:59:20.431|56=MY_CLIENT|10=219|8=FIX.4.2|9=63|35=0|34=255|49=MY_SERVER|52=20260203-07:59:50.431|56=MY_CLIENT|10=223|8=FIX.4.2|9=75|35=A|34=256|49=MY_SERVER|52=20260203-08:06:44.145|56=MY_CLIENT|98=0|108=30|10=011|8=FIX.4.2|9=159|35=8|34=257|49=MY_SERVER|52=20260203-08:07:10.723|56=MY_CLIENT|6=23.1|14=250|17=EXEC-1770106030720|20=0|37=ORDER-1770106030716|39=0|54=2|55=MFEC|150=0|151=250|10=179|8=FIX.4.2|9=63|35=0|34=258|49=MY_SERVER|52=20260203-08:07:40.967|56=MY_CLIENT|10=233|8=FIX.4.2|9=63|35=0|34=259|49=MY_SERVER|52=20260203-08:08:10.966|56=MY_CLIENT|10=231|8=FIX.4.2|9=63|35=0|34=260|49=MY_SERVER|52=20260203-08:08:40.967|56=MY_CLIENT|10=227|8=FIX.4.2|9=63|35=0|34=261|49=MY_SERVER|52=20260203-08:09:10.964|56=MY_CLIENT|10=223|8=FIX.4.2|9=63|35=0|34=262|49=MY_SERVER|52=20260203-08:09:40.966|56=MY_CLIENT|10=229|8=FIX.4.2|9=63|35=0|34=263|49=MY_SERVER|52=20260203-08:10:10.965|56=MY_CLIENT|10=218|8=FIX.4.2|9=63|35=0|34=264|49=MY_SERVER|52=20260203-08:10:40.966|56=MY_CLIENT|10=223|8=FIX.4.2|9=63|35=0|34=265|49=MY_SERVER|52=20260203-08:11:10.966|56=MY_CLIENT|10=222|8=FIX.4.2|9=63|35=0|34=266|49=MY_SERVER|52=20260203-08:11:40.969|56=MY_CLIENT|10=229|8=FIX.4.2|9=63|35=0|34=267|49=MY_SERVER|52=20260203-08:12:10.965|56=MY_CLIENT|10=224|8=FIX.4.2|9=63|35=0|34=268|49=MY_SERVER|52=20260203-08:12:40.974|56=MY_CLIENT|10=228|8=FIX.4.2|9=63|35=0|34=269|49=MY_SERVER|52=20260203-08:13:10.974|56=MY_CLIENT|10=227|8=FIX.4.2|9=160|35=8|34=270|49=MY_SERVER|52=20260203-08:13:23.257|56=MY_CLIENT|6=30000|14=100|17=EXEC-1770106403256|20=0|37=ORDER-1770106403256|39=0|54=1|55=PREM|150=0|151=100|10=239|8=FIX.4.2|9=63|35=0|34=271|49=MY_SERVER|52=20260203-08:13:53.965|56=MY_CLIENT|10=227|8=FIX.4.2|9=63|35=0|34=272|49=MY_SERVER|52=20260203-08:14:23.965|56=MY_CLIENT|10=226|8=FIX.4.2|9=63|35=0|34=273|49=MY_SERVER|52=20260203-08:14:53.965|56=MY_CLIENT|10=230|8=FIX.4.2|9=63|35=0|34=274|49=MY_SERVER|52=20260203-08:15:23.966|56=MY_CLIENT|10=230|8=FIX.4.2|9=63|35=0|34=275|49=MY_SERVER|52=20260203-08:15:53.966|56=MY_CLIENT|10=234|8=FIX.4.2|9=63|35=0|34=276|49=MY_SERVER|52=20260203-08:16:23.967|56=MY_CLIENT|10=234|8=FIX.4.2|9=75|35=A|34=277|49=MY_SERVER|52=20260203-08:17:01.152|56=MY_CLIENT|98=0|108=30|10=007|8=FIX.4.2|9=158|35=8|34=278|49=MY_SERVER|52=20260203-08:17:06.113|56=MY_CLIENT|6=200|14=122|17=EXEC-1770106626110|20=0|37=ORDER-1770106626106|39=0|54=1|55=MFEC|150=0|151=122|10=133|8=FIX.4.2|9=63|35=0|34=279|49=MY_SERVER|52=20260203-08:17:36.488|56=MY_CLIENT|10=240|8=FIX.4.2|9=75|35=A|34=280|49=MY_SERVER|52=20260203-08:17:55.143|56=MY_CLIENT|98=0|108=30|10=010|8=FIX.4.2|9=63|35=0|34=281|49=MY_SERVER|52=20260203-08:18:25.616|56=MY_CLIENT|10=225|8=FIX.4.2|9=63|35=0|34=282|49=MY_SERVER|52=20260203-08:18:55.615|56=MY_CLIENT|10=228|8=FIX.4.2|9=63|35=0|34=283|49=MY_SERVER|52=20260203-08:19:25.616|56=MY_CLIENT|10=228|8=FIX.4.2|9=63|35=0|34=284|49=MY_SERVER|52=20260203-08:19:55.612|56=MY_CLIENT|10=228|8=FIX.4.2|9=63|35=0|34=285|49=MY_SERVER|52=20260203-08:20:25.616|56=MY_CLIENT|10=222|8=FIX.4.2|9=63|35=0|34=286|49=MY_SERVER|52=20260203-08:20:55.616|56=MY_CLIENT|10=226|8=FIX.4.2|9=63|35=0|34=287|49=MY_SERVER|52=20260203-08:21:25.615|56=MY_CLIENT|10=224|8=FIX.4.2|9=63|35=0|34=288|49=MY_SERVER|52=20260203-08:21:55.615|56=MY_CLIENT|10=228|8=FIX.4.2|9=63|35=0|34=289|49=MY_SERVER|52=20260203-08:22:25.615|56=MY_CLIENT|10=227|8=FIX.4.2|9=63|35=0|34=290|49=MY_SERVER|52=20260203-08:22:55.611|56=MY_CLIENT|10=218|8=FIX.4.2|9=63|35=0|34=291|49=MY_SERVER|52=20260203-08:23:25.615|56=MY_CLIENT|10=221|8=FIX.4.2|9=75|35=A|34=292|49=MY_SERVER|52=20260203-08:25:40.601|56=MY_CLIENT|98=0|108=30|10=005|8=FIX.4.2|9=63|35=0|34=293|49=MY_SERVER|52=20260203-08:26:10.600|56=MY_CLIENT|10=214|8=FIX.4.2|9=63|35=0|34=294|49=MY_SERVER|52=20260203-08:26:40.596|56=MY_CLIENT|10=232|8=FIX.4.2|9=63|35=0|34=295|49=MY_SERVER|52=20260203-08:27:10.600|56=MY_CLIENT|10=217|8=FIX.4.2|9=75|35=A|34=296|49=MY_SERVER|52=20260203-08:27:51.621|56=MY_CLIENT|98=0|108=30|10=015|8=FIX.4.2|9=160|35=8|34=297|49=MY_SERVER|52=20260203-08:28:00.591|56=MY_CLIENT|6=12.32|14=100|17=EXEC-1770107280588|20=0|37=ORDER-1770107280585|39=0|54=1|55=MFEC|150=0|151=100|10=249|8=FIX.4.2|9=63|35=0|34=298|49=MY_SERVER|52=20260203-08:28:30.671|56=MY_CLIENT|10=231|8=FIX.4.2|9=63|35=0|34=299|49=MY_SERVER|52=20260203-08:29:00.676|56=MY_CLIENT|10=235|8=FIX.4.2|9=63|35=0|34=300|49=MY_SERVER|52=20260203-08:29:30.675|56=MY_CLIENT|10=220|8=FIX.4.2|9=63|35=0|34=301|49=MY_SERVER|52=20260203-08:30:00.674|56=MY_CLIENT|10=209|8=FIX.4.2|9=63|35=0|34=302|49=MY_SERVER|52=20260203-08:30:30.674|56=MY_CLIENT|10=213|8=FIX.4.2|9=63|35=0|34=303|49=MY_SERVER|52=20260203-08:31:00.675|56=MY_CLIENT|10=213|8=FIX.4.2|9=63|35=0|34=304|49=MY_SERVER|52=20260203-08:31:30.675|56=MY_CLIENT|10=217|8=FIX.4.2|9=63|35=0|34=305|49=MY_SERVER|52=20260203-08:32:00.673|56=MY_CLIENT|10=214|8=FIX.4.2|9=63|35=0|34=306|49=MY_SERVER|52=20260203-08:32:30.675|56=MY_CLIENT|10=220|8=FIX.4.2|9=63|35=0|34=307|49=MY_SERVER|52=20260203-08:33:00.676|56=MY_CLIENT|10=220|8=FIX.4.2|9=63|35=0|34=308|49=MY_SERVER|52=20260203-08:33:30.676|56=MY_CLIENT|10=224|8=FIX.4.2|9=63|35=0|34=309|49=MY_SERVER|52=20260203-08:34:00.672|56=MY_CLIENT|10=219|8=FIX.4.2|9=63|35=0|34=310|49=MY_SERVER|52=20260203-08:34:30.672|56=MY_CLIENT|10=214|8=FIX.4.2|9=63|35=0|34=311|49=MY_SERVER|52=20260203-08:35:00.671|56=MY_CLIENT|10=212|8=FIX.4.2|9=63|35=0|34=312|49=MY_SERVER|52=20260203-08:35:30.675|56=MY_CLIENT|10=220|8=FIX.4.2|9=63|35=0|34=313|49=MY_SERVER|52=20260203-08:36:00.673|56=MY_CLIENT|10=217|8=FIX.4.2|9=63|35=0|34=314|49=MY_SERVER|52=20260203-08:36:30.673|56=MY_CLIENT|10=221|8=FIX.4.2|9=63|35=0|34=315|49=MY_SERVER|52=20260203-08:37:00.676|56=MY_CLIENT|10=223|8=FIX.4.2|9=63|35=0|34=316|49=MY_SERVER|52=20260203-08:37:30.672|56=MY_CLIENT|10=223|8=FIX.4.2|9=63|35=0|34=317|49=MY_SERVER|52=20260203-08:38:00.670|56=MY_CLIENT|10=220|8=FIX.4.2|9=63|35=0|34=318|49=MY_SERVER|52=20260203-08:38:30.676|56=MY_CLIENT|10=230|8=FIX.4.2|9=63|35=0|34=319|49=MY_SERVER|52=20260203-08:39:00.673|56=MY_CLIENT|10=226|8=FIX.4.2|9=63|35=0|34=320|49=MY_SERVER|52=20260203-08:39:30.672|56=MY_CLIENT|10=220|8=FIX.4.2|9=63|35=0|34=321|49=MY_SERVER|52=20260203-08:40:00.676|56=MY_CLIENT|10=214|8=FIX.4.2|9=63|35=0|34=322|49=MY_SERVER|52=20260203-08:40:30.671|56=MY_CLIENT|10=213|8=FIX.4.2|9=63|35=0|34=323|49=MY_SERVER|52=20260203-08:41:00.672|56=MY_CLIENT|10=213|8=FIX.4.2|9=63|35=0|34=324|49=MY_SERVER|52=20260203-08:41:30.675|56=MY_CLIENT|10=220|8=FIX.4.2|9=63|35=0|34=325|49=MY_SERVER|52=20260203-08:42:00.676|56=MY_CLIENT|10=220|8=FIX.4.2|9=63|35=0|34=326|49=MY_SERVER|52=20260203-08:42:30.672|56=MY_CLIENT|10=220|8=FIX.4.2|9=63|35=0|34=327|49=MY_SERVER|52=20260203-08:43:00.676|56=MY_CLIENT|10=223|8=FIX.4.2|9=63|35=0|34=328|49=MY_SERVER|52=20260203-08:43:30.676|56=MY_CLIENT|10=227|8=FIX.4.2|9=63|35=0|34=329|49=MY_SERVER|52=20260203-08:44:00.676|56=MY_CLIENT|10=226|8=FIX.4.2|9=63|35=0|34=330|49=MY_SERVER|52=20260203-08:44:30.675|56=MY_CLIENT|10=220|8=FIX.4.2|9=63|35=0|34=331|49=MY_SERVER|52=20260203-08:45:00.676|56=MY_CLIENT|10=220|8=FIX.4.2|9=63|35=0|34=332|49=MY_SERVER|52=20260203-08:45:30.676|56=MY_CLIENT|10=224|8=FIX.4.2|9=63|35=0|34=333|49=MY_SERVER|52=20260203-08:46:00.675|56=MY_CLIENT|10=222|8=FIX.4.2|9=63|35=0|34=334|49=MY_SERVER|52=20260203-08:46:30.675|56=MY_CLIENT|10=226|8=FIX.4.2|9=63|35=0|34=335|49=MY_SERVER|52=20260203-08:47:00.671|56=MY_CLIENT|10=221|8=FIX.4.2|9=63|35=0|34=336|49=MY_SERVER|52=20260203-08:47:30.674|56=MY_CLIENT|10=228|8=FIX.4.2|9=63|35=0|34=337|49=MY_SERVER|52=20260203-08:48:00.676|56=MY_CLIENT|10=229|8=FIX.4.2|9=63|35=0|34=338|49=MY_SERVER|52=20260203-08:48:30.671|56=MY_CLIENT|10=228|8=FIX.4.2|9=63|35=0|34=339|49=MY_SERVER|52=20260203-08:49:00.676|56=MY_CLIENT|10=232|8=FIX.4.2|9=63|35=0|34=340|49=MY_SERVER|52=20260203-08:49:30.672|56=MY_CLIENT|10=223|8=FIX.4.2|9=63|35=0|34=341|49=MY_SERVER|52=20260203-08:50:00.675|56=MY_CLIENT|10=216|8=FIX.4.2|9=63|35=0|34=342|49=MY_SERVER|52=20260203-08:50:30.673|56=MY_CLIENT|10=218|8=FIX.4.2|9=63|35=0|34=343|49=MY_SERVER|52=20260203-08:51:00.674|56=MY_CLIENT|10=218|8=FIX.4.2|9=63|35=0|34=344|49=MY_SERVER|52=20260203-08:51:30.671|56=MY_CLIENT|10=219|8=FIX.4.2|9=63|35=0|34=345|49=MY_SERVER|52=20260203-08:52:00.676|56=MY_CLIENT|10=223|8=FIX.4.2|9=63|35=0|34=346|49=MY_SERVER|52=20260203-08:52:30.671|56=MY_CLIENT|10=222|8=FIX.4.2|9=63|35=0|34=347|49=MY_SERVER|52=20260203-08:53:00.672|56=MY_CLIENT|10=222|8=FIX.4.2|9=63|35=0|34=348|49=MY_SERVER|52=20260203-08:53:30.672|56=MY_CLIENT|10=226|8=FIX.4.2|9=63|35=0|34=349|49=MY_SERVER|52=20260203-08:54:00.675|56=MY_CLIENT|10=228|8=FIX.4.2|9=63|35=0|34=350|49=MY_SERVER|52=20260203-08:54:30.672|56=MY_CLIENT|10=220|8=FIX.4.2|9=63|35=0|34=351|49=MY_SERVER|52=20260203-08:55:00.671|56=MY_CLIENT|10=218|8=FIX.4.2|9=63|35=0|34=352|49=MY_SERVER|52=20260203-08:55:30.671|56=MY_CLIENT|10=222|8=FIX.4.2|9=63|35=0|34=353|49=MY_SERVER|52=20260203-08:56:00.673|56=MY_CLIENT|10=223|8=FIX.4.2|9=63|35=0|34=354|49=MY_SERVER|52=20260203-08:56:30.674|56=MY_CLIENT|10=228|8=FIX.4.2|9=63|35=0|34=355|49=MY_SERVER|52=20260203-08:57:00.676|56=MY_CLIENT|10=229|8=FIX.4.2|9=63|35=0|34=356|49=MY_SERVER|52=20260203-08:57:30.673|56=MY_CLIENT|10=230|8=FIX.4.2|9=63|35=0|34=357|49=MY_SERVER|52=20260203-08:58:00.675|56=MY_CLIENT|10=231|8=FIX.4.2|9=63|35=0|34=358|49=MY_SERVER|52=20260203-08:58:30.671|56=MY_CLIENT|10=231|8=FIX.4.2|9=63|35=0|34=359|49=MY_SERVER|52=20260203-08:59:00.675|56=MY_CLIENT|10=234|8=FIX.4.2|9=63|35=0|34=360|49=MY_SERVER|52=20260203-08:59:30.671|56=MY_CLIENT|10=225|8=FIX.4.2|9=63|35=0|34=361|49=MY_SERVER|52=20260203-09:00:00.675|56=MY_CLIENT|10=214|8=FIX.4.2|9=63|35=0|34=362|49=MY_SERVER|52=20260203-09:00:30.673|56=MY_CLIENT|10=216|8=FIX.4.2|9=63|35=0|34=363|49=MY_SERVER|52=20260203-09:01:00.673|56=MY_CLIENT|10=215|8=FIX.4.2|9=63|35=0|34=364|49=MY_SERVER|52=20260203-09:01:30.672|56=MY_CLIENT|10=218|8=FIX.4.2|9=63|35=0|34=365|49=MY_SERVER|52=20260203-09:02:00.673|56=MY_CLIENT|10=218|8=FIX.4.2|9=63|35=0|34=366|49=MY_SERVER|52=20260203-09:02:30.677|56=MY_CLIENT|10=226|8=FIX.4.2|9=63|35=0|34=367|49=MY_SERVER|52=20260203-09:03:00.679|56=MY_CLIENT|10=227|8=FIX.4.2|9=63|35=0|34=368|49=MY_SERVER|52=20260203-09:03:30.680|56=MY_CLIENT|10=223|8=FIX.4.2|9=63|35=0|34=369|49=MY_SERVER|52=20260203-09:04:00.677|56=MY_CLIENT|10=228|8=FIX.4.2|9=63|35=0|34=370|49=MY_SERVER|52=20260203-09:04:30.677|56=MY_CLIENT|10=223|8=FIX.4.2|9=63|35=0|34=371|49=MY_SERVER|52=20260203-09:05:00.671|56=MY_CLIENT|10=216|8=FIX.4.2|9=63|35=0|34=372|49=MY_SERVER|52=20260203-09:05:30.675|56=MY_CLIENT|10=224|8=FIX.4.2|9=63|35=0|34=373|49=MY_SERVER|52=20260203-09:06:00.675|56=MY_CLIENT|10=223|8=FIX.4.2|9=63|35=0|34=374|49=MY_SERVER|52=20260203-09:06:30.675|56=MY_CLIENT|10=227|8=FIX.4.2|9=63|35=0|34=375|49=MY_SERVER|52=20260203-09:07:00.675|56=MY_CLIENT|10=226|8=FIX.4.2|9=63|35=0|34=376|49=MY_SERVER|52=20260203-09:07:30.671|56=MY_CLIENT|10=226|8=FIX.4.2|9=63|35=0|34=377|49=MY_SERVER|52=20260203-09:08:00.672|56=MY_CLIENT|10=226|8=FIX.4.2|9=63|35=0|34=378|49=MY_SERVER|52=20260203-09:08:30.671|56=MY_CLIENT|10=229|8=FIX.4.2|9=63|35=0|34=379|49=MY_SERVER|52=20260203-09:09:00.675|56=MY_CLIENT|10=232|8=FIX.4.2|9=63|35=0|34=380|49=MY_SERVER|52=20260203-09:09:30.675|56=MY_CLIENT|10=227|8=FIX.4.2|9=63|35=0|34=381|49=MY_SERVER|52=20260203-09:10:00.675|56=MY_CLIENT|10=217|8=FIX.4.2|9=63|35=0|34=382|49=MY_SERVER|52=20260203-09:10:30.671|56=MY_CLIENT|10=217|8=FIX.4.2|9=63|35=0|34=383|49=MY_SERVER|52=20260203-09:11:00.680|56=MY_CLIENT|10=216|8=FIX.4.2|9=63|35=0|34=384|49=MY_SERVER|52=20260203-09:11:30.680|56=MY_CLIENT|10=220|8=FIX.4.2|9=63|35=0|34=385|49=MY_SERVER|52=20260203-09:12:00.677|56=MY_CLIENT|10=225|8=FIX.4.2|9=63|35=0|34=386|49=MY_SERVER|52=20260203-09:12:30.679|56=MY_CLIENT|10=231|8=FIX.4.2|9=63|35=0|34=387|49=MY_SERVER|52=20260203-09:13:01.675|56=MY_CLIENT|10=227|8=FIX.4.2|9=63|35=0|34=388|49=MY_SERVER|52=20260203-09:13:31.670|56=MY_CLIENT|10=226|8=FIX.4.2|9=63|35=0|34=389|49=MY_SERVER|52=20260203-09:14:01.670|56=MY_CLIENT|10=225|8=FIX.4.2|9=63|35=0|34=390|49=MY_SERVER|52=20260203-09:14:31.673|56=MY_CLIENT|10=223|8=FIX.4.2|9=63|35=0|34=391|49=MY_SERVER|52=20260203-09:15:01.674|56=MY_CLIENT|10=223|8=FIX.4.2|9=63|35=0|34=392|49=MY_SERVER|52=20260203-09:15:31.675|56=MY_CLIENT|10=228|8=FIX.4.2|9=63|35=0|34=393|49=MY_SERVER|52=20260203-09:16:01.670|56=MY_CLIENT|10=222|8=FIX.4.2|9=63|35=0|34=394|49=MY_SERVER|52=20260203-09:16:31.674|56=MY_CLIENT|10=230|8=FIX.4.2|9=63|35=0|34=395|49=MY_SERVER|52=20260203-09:17:01.674|56=MY_CLIENT|10=229|8=FIX.4.2|9=63|35=0|34=396|49=MY_SERVER|52=20260203-09:17:31.672|56=MY_CLIENT|10=231|8=FIX.4.2|9=63|35=0|34=397|49=MY_SERVER|52=20260203-09:18:01.674|56=MY_CLIENT|10=232|8=FIX.4.2|9=63|35=0|34=398|49=MY_SERVER|52=20260203-09:18:31.670|56=MY_CLIENT|10=232|8=FIX.4.2|9=63|35=0|34=399|49=MY_SERVER|52=20260203-09:19:01.674|56=MY_CLIENT|10=235|8=FIX.4.2|9=63|35=0|34=400|49=MY_SERVER|52=20260203-09:19:31.671|56=MY_CLIENT|10=218|8=FIX.4.2|9=63|35=0|34=401|49=MY_SERVER|52=20260203-09:20:01.669|56=MY_CLIENT|10=215|8=FIX.4.2|9=63|35=0|34=402|49=MY_SERVER|52=20260203-09:20:31.673|56=MY_CLIENT|10=214|8=FIX.4.2|9=63|35=0|34=403|49=MY_SERVER|52=20260203-09:21:01.671|56=MY_CLIENT|10=211|8=FIX.4.2|9=63|35=0|34=404|49=MY_SERVER|52=20260203-09:21:31.669|56=MY_CLIENT|10=222|8=FIX.4.2|9=63|35=0|34=405|49=MY_SERVER|52=20260203-09:22:01.674|56=MY_CLIENT|10=217|8=FIX.4.2|9=63|35=0|34=406|49=MY_SERVER|52=20260203-09:22:31.679|56=MY_CLIENT|10=226|8=FIX.4.2|9=63|35=0|34=407|49=MY_SERVER|52=20260203-09:23:01.674|56=MY_CLIENT|10=220|8=FIX.4.2|9=63|35=0|34=408|49=MY_SERVER|52=20260203-09:23:31.670|56=MY_CLIENT|10=220|8=FIX.4.2|9=63|35=0|34=409|49=MY_SERVER|52=20260203-09:24:01.673|56=MY_CLIENT|10=222|8=FIX.4.2|9=63|35=0|34=410|49=MY_SERVER|52=20260203-09:24:31.673|56=MY_CLIENT|10=217|8=FIX.4.2|9=63|35=0|34=411|49=MY_SERVER|52=20260203-09:25:01.673|56=MY_CLIENT|10=216|8=FIX.4.2|9=63|35=0|34=412|49=MY_SERVER|52=20260203-09:25:31.671|56=MY_CLIENT|10=218|8=FIX.4.2|9=63|35=0|34=413|49=MY_SERVER|52=20260203-09:26:01.674|56=MY_CLIENT|10=220|8=FIX.4.2|9=63|35=0|34=414|49=MY_SERVER|52=20260203-09:26:31.674|56=MY_CLIENT|10=224|