8=FIX.4.2|9=73|35=A|34=1|49=MY_SERVER|52=20260203-06:20:33.294|56=MY_CLIENT|98=0|108=30|10=154|8=FIX.4.2|9=70|35=2|34=2|49=MY_SERVER|52=20260203-06:20:33.316|56=MY_CLIENT|7=1|16=0|10=230|8=FIX.4.2|9=61|35=5|34=3|49=MY_SERVER|52=20260203-06:20:33.321|56=MY_CLIENT|10=107|8=FIX.4.2|9=73|35=A|34=4|49=MY_SERVER|52=20260203-06:20:38.245|56=MY_CLIENT|98=0|108=30|10=158|8=FIX.4.2|9=70|35=2|34=5|49=MY_SERVER|52=20260203-06:20:38.247|56=MY_CLIENT|7=1|16=0|10=241|8=FIX.4.2|9=73|35=A|34=6|49=MY_SERVER|52=20260203-06:21:39.564|56=MY_CLIENT|98=0|108=30|10=166|8=FIX.4.2|9=70|35=2|34=7|49=MY_SERVER|52=20260203-06:21:39.565|56=MY_CLIENT|7=7|16=0|10=254|8=FIX.4.2|9=61|35=5|34=8|49=MY_SERVER|52=20260203-06:21:39.571|56=MY_CLIENT|10=126|8=FIX.4.2|9=73|35=A|34=9|49=MY_SERVER|52=20260203-06:21:44.521|56=MY_CLIENT|98=0|108=30|10=158|8=FIX.4.2|9=71|35=2|34=10|49=MY_SERVER|52=20260203-06:21:44.522|56=MY_CLIENT|7=7|16=0|10=030|8=FIX.4.2|9=62|35=5|34=11|49=MY_SERVER|52=20260203-06:21:44.524|56=MY_CLIENT|10=163|8=FIX.4.2|9=74|35=A|34=12|49=MY_SERVER|52=20260203-06:21:49.525|56=MY_CLIENT|98=0|108=30|10=210|8=FIX.4.2|9=71|35=2|34=13|49=MY_SERVER|52=20260203-06:21:49.527|56=MY_CLIENT|7=7|16=0|10=043|8=FIX.4.2|9=62|35=5|34=14|49=MY_SERVER|52=20260203-06:21:49.530|56=MY_CLIENT|10=168|8=FIX.4.2|9=74|35=A|34=15|49=MY_SERVER|52=20260203-06:21:54.525|56=MY_CLIENT|98=0|108=30|10=209|8=FIX.4.2|9=71|35=2|34=16|49=MY_SERVER|52=20260203-06:21:54.526|56=MY_CLIENT|7=7|16=0|10=041|8=FIX.4.2|9=62|35=5|34=17|49=MY_SERVER|52=20260203-06:21:54.533|56=MY_CLIENT|10=170|8=FIX.4.2|9=74|35=A|34=18|49=MY_SERVER|52=20260203-06:21:59.525|56=MY_CLIENT|98=0|108=30|10=217|8=FIX.4.2|9=71|35=2|34=19|49=MY_SERVER|52=20260203-06:21:59.526|56=MY_CLIENT|7=7|16=0|10=049|8=FIX.4.2|9=62|35=5|34=20|49=MY_SERVER|52=20260203-06:21:59.531|56=MY_CLIENT|10=167|8=FIX.4.2|9=74|35=A|34=21|49=MY_SERVER|52=20260203-06:22:04.525|56=MY_CLIENT|98=0|108=30|10=202|8=FIX.4.2|9=71|35=2|34=22|49=MY_SERVER|52=20260203-06:22:04.529|56=MY_CLIENT|7=7|16=0|10=037|8=FIX.4.2|9=62|35=5|34=23|49=MY_SERVER|52=20260203-06:22:04.533|56=MY_CLIENT|10=163|8=FIX.4.2|9=74|35=A|34=24|49=MY_SERVER|52=20260203-06:22:09.525|56=MY_CLIENT|98=0|108=30|10=210|8=FIX.4.2|9=71|35=2|34=25|49=MY_SERVER|52=20260203-06:22:09.527|56=MY_CLIENT|7=7|16=0|10=043|8=FIX.4.2|9=62|35=5|34=26|49=MY_SERVER|52=20260203-06:22:09.531|56=MY_CLIENT|10=169|8=FIX.4.2|9=74|35=A|34=27|49=MY_SERVER|52=20260203-06:22:14.520|56=MY_CLIENT|98=0|108=30|10=204|8=FIX.4.2|9=71|35=2|34=28|49=MY_SERVER|52=20260203-06:22:14.521|56=MY_CLIENT|7=7|16=0|10=036|8=FIX.4.2|9=62|35=5|34=29|49=MY_SERVER|52=20260203-06:22:14.524|56=MY_CLIENT|10=170|8=FIX.4.2|9=74|35=A|34=30|49=MY_SERVER|52=20260203-06:22:19.522|56=MY_CLIENT|98=0|108=30|10=205|8=FIX.4.2|9=71|35=2|34=31|49=MY_SERVER|52=20260203-06:22:19.523|56=MY_CLIENT|7=7|16=0|10=037|8=FIX.4.2|9=62|35=5|34=32|49=MY_SERVER|52=20260203-06:22:19.527|56=MY_CLIENT|10=172|8=FIX.4.2|9=74|35=A|34=33|49=MY_SERVER|52=20260203-06:22:24.518|56=MY_CLIENT|98=0|108=30|10=209|8=FIX.4.2|9=71|35=2|34=34|49=MY_SERVER|52=20260203-06:22:24.519|56=MY_CLIENT|7=7|16=0|10=041|8=FIX.4.2|9=62|35=5|34=35|49=MY_SERVER|52=20260203-06:22:24.521|56=MY_CLIENT|10=165|8=FIX.4.2|9=74|35=A|34=36|49=MY_SERVER|52=20260203-06:22:29.524|56=MY_CLIENT|98=0|108=30|10=214|8=FIX.4.2|9=71|35=2|34=37|49=MY_SERVER|52=20260203-06:22:29.525|56=MY_CLIENT|7=7|16=0|10=046|8=FIX.4.2|9=62|35=5|34=38|49=MY_SERVER|52=20260203-06:22:29.528|56=MY_CLIENT|10=180|8=FIX.4.2|9=74|35=A|34=39|49=MY_SERVER|52=20260203-06:22:34.520|56=MY_CLIENT|98=0|108=30|10=209|8=FIX.4.2|9=71|35=2|34=40|49=MY_SERVER|52=20260203-06:22:34.521|56=MY_CLIENT|7=7|16=0|10=032|8=FIX.4.2|9=62|35=5|34=41|49=MY_SERVER|52=20260203-06:22:34.523|56=MY_CLIENT|10=165|8=FIX.4.2|9=74|35=A|34=42|49=MY_SERVER|52=20260203-06:22:39.520|56=MY_CLIENT|98=0|108=30|10=208|8=FIX.4.2|9=71|35=2|34=43|49=MY_SERVER|52=20260203-06:22:39.521|56=MY_CLIENT|7=7|16=0|10=040|8=FIX.4.2|9=62|35=5|34=44|49=MY_SERVER|52=20260203-06:22:39.523|56=MY_CLIENT|10=173|8=FIX.4.2|9=74|35=A|34=45|49=MY_SERVER|52=20260203-06:22:44.518|56=MY_CLIENT|98=0|108=30|10=214|8=FIX.4.2|9=71|35=2|34=46|49=MY_SERVER|52=20260203-06:22:44.519|56=MY_CLIENT|7=7|16=0|10=046|8=FIX.4.2|9=62|35=5|34=47|49=MY_SERVER|52=20260203-06:22:44.522|56=MY_CLIENT|10=171|8=FIX.4.2|9=74|35=A|34=48|49=MY_SERVER|52=20260203-06:22:49.526|56=MY_CLIENT|98=0|108=30|10=221|8=FIX.4.2|9=71|35=2|34=49|49=MY_SERVER|52=20260203-06:22:49.528|56=MY_CLIENT|7=7|16=0|10=054|8=FIX.4.2|9=62|35=5|34=50|49=MY_SERVER|52=20260203-06:22:49.537|56=MY_CLIENT|10=176|8=FIX.4.2|9=74|35=A|34=51|49=MY_SERVER|52=20260203-06:22:54.524|56=MY_CLIENT|98=0|108=30|10=209|8=FIX.4.2|9=71|35=2|34=52|49=MY_SERVER|52=20260203-06:22:54.526|56=MY_CLIENT|7=7|16=0|10=042|8=FIX.4.2|9=62|35=5|34=53|49=MY_SERVER|52=20260203-06:22:54.535|56=MY_CLIENT|10=173|8=FIX.4.2|9=74|35=A|34=54|49=MY_SERVER|52=20260203-06:22:59.521|56=MY_CLIENT|98=0|108=30|10=214|8=FIX.4.2|9=71|35=2|34=55|49=MY_SERVER|52=20260203-06:22:59.522|56=MY_CLIENT|7=7|16=0|10=046|8=FIX.4.2|9=62|35=5|34=56|49=MY_SERVER|52=20260203-06:22:59.525|56=MY_CLIENT|10=180|8=FIX.4.2|9=74|35=A|34=57|49=MY_SERVER|52=20260203-06:23:04.525|56=MY_CLIENT|98=0|108=30|10=212|8=FIX.4.2|9=71|35=2|34=58|49=MY_SERVER|52=20260203-06:23:04.526|56=MY_CLIENT|7=7|16=0|10=044|8=FIX.4.2|9=62|35=5|34=59|49=MY_SERVER|52=20260203-06:23:04.536|56=MY_CLIENT|10=176|8=FIX.4.2|9=74|35=A|34=60|49=MY_SERVER|52=20260203-06:23:09.522|56=MY_CLIENT|98=0|108=30|10=208|8=FIX.4.2|9=71|35=2|34=61|49=MY_SERVER|52=20260203-06:23:09.523|56=MY_CLIENT|7=7|16=0|10=040|8=FIX.4.2|9=62|35=5|34=62|49=MY_SERVER|52=20260203-06:23:09.535|56=MY_CLIENT|10=174|8=FIX.4.2|9=74|35=A|34=63|49=MY_SERVER|52=20260203-06:23:14.526|56=MY_CLIENT|98=0|108=30|10=211|8=FIX.4.2|9=71|35=2|34=64|49=MY_SERVER|52=20260203-06:23:14.528|56=MY_CLIENT|7=7|16=0|10=044|8=FIX.4.2|9=62|35=5|34=65|49=MY_SERVER|52=20260203-06:23:14.532|56=MY_CLIENT|10=170|8=FIX.4.2|9=74|35=A|34=66|49=MY_SERVER|52=20260203-06:23:19.523|56=MY_CLIENT|98=0|108=30|10=216|8=FIX.4.2|9=71|35=2|34=67|49=MY_SERVER|52=20260203-06:23:19.523|56=MY_CLIENT|7=7|16=0|10=047|8=FIX.4.2|9=62|35=5|34=68|49=MY_SERVER|52=20260203-06:23:19.526|56=MY_CLIENT|10=181|8=FIX.4.2|9=74|35=A|34=69|49=MY_SERVER|52=20260203-06:23:24.532|56=MY_CLIENT|98=0|108=30|10=215|8=FIX.4.2|9=71|35=2|34=70|49=MY_SERVER|52=20260203-06:23:24.533|56=MY_CLIENT|7=7|16=0|10=038|8=FIX.4.2|9=62|35=5|34=71|49=MY_SERVER|52=20260203-06:23:24.536|56=MY_CLIENT|10=172|8=FIX.4.2|9=74|35=A|34=72|49=MY_SERVER|52=20260203-06:23:29.516|56=MY_CLIENT|98=0|108=30|10=216|8=FIX.4.2|9=71|35=2|34=73|49=MY_SERVER|52=20260203-06:23:29.517|56=MY_CLIENT|7=7|16=0|10=048|8=FIX.4.2|9=62|35=5|34=74|49=MY_SERVER|52=20260203-06:23:29.518|56=MY_CLIENT|10=180|8=FIX.4.2|9=74|35=A|34=75|49=MY_SERVER|52=20260203-06:23:34.524|56=MY_CLIENT|98=0|108=30|10=214|8=FIX.4.2|9=71|35=2|34=76|49=MY_SERVER|52=20260203-06:23:34.526|56=MY_CLIENT|7=7|16=0|10=047|8=FIX.4.2|9=62|35=5|34=77|49=MY_SERVER|52=20260203-06:23:34.532|56=MY_CLIENT|10=175|8=FIX.4.2|9=74|35=A|34=78|49=MY_SERVER|52=20260203-06:23:39.526|56=MY_CLIENT|98=0|108=30|10=224|8=FIX.4.2|9=71|35=2|34=79|49=MY_SERVER|52=20260203-06:23:39.527|56=MY_CLIENT|7=7|16=0|10=056|8=FIX.4.2|9=62|35=5|34=80|49=MY_SERVER|52=20260203-06:23:39.534|56=MY_CLIENT|10=176|8=FIX.4.2|9=74|35=A|34=81|49=MY_SERVER|52=20260203-06:23:44.518|56=MY_CLIENT|98=0|108=30|10=215|8=FIX.4.2|9=71|35=2|34=82|49=MY_SERVER|52=20260203-06:23:44.519|56=MY_CLIENT|7=7|16=0|10=047|8=FIX.4.2|9=62|35=5|34=83|49=MY_SERVER|52=20260203-06:23:44.528|56=MY_CLIENT|10=178|8=FIX.4.2|9=74|35=A|34=84|49=MY_SERVER|52=20260203-06:23:49.521|56=MY_CLIENT|98=0|108=30|10=217|8=FIX.4.2|9=71|35=2|34=85|49=MY_SERVER|52=20260203-06:23:49.522|56=MY_CLIENT|7=7|16=0|10=049|8=FIX.4.2|9=62|35=5|34=86|49=MY_SERVER|52=20260203-06:23:49.526|56=MY_CLIENT|10=184|8=FIX.4.2|9=74|35=A|34=87|49=MY_SERVER|52=20260203-06:23:54.524|56=MY_CLIENT|98=0|108=30|10=219|8=FIX.4.2|9=71|35=2|34=88|49=MY_SERVER|52=20260203-06:23:54.525|56=MY_CLIENT|7=7|16=0|10=051|